:100358004F4B00415445300D00646F6E6520310DE0
:10036800002B435245473A20312C31002B4352454C
:10037800473A20312C350041542B435245473D31F3
:100388000D0041542B435245473F0D00646F6E6585
:1003980020320D0041542B435354543D22434D4EBB
:1003A8004554220D00646F6E6520330D0041542BB7
:1003B80043494943520D00646F6E6520340D004176
:1003C800542B434C504F52543D22544350222C221C
:1003D80032303232220D0041542B434950484541B6
:1003E800443D310D0041542B43495053544152541C
:1003F8003D22544350222C227777772E68756D69F9
:100408006E616E742E746F70222C313539320D0086
:10041800434F4E4E454354204F4B00646F6E65204A
:03042800350D008F
:1001640012084212000E1208547BFF7A03795812C7
:1001740007B840107BFF7A03795B1207527F0112A4
:10018400082E80E57BFF7A037961120785120854F3
:100194007BFF7A0379691207B840297BFF7A0379D8
:1001A400741207B8401E7BFF7A03797F1207527FCF
:1001B4000112082E7BFF7A03798A1207527F0112FB
:1001C400082E80CC120854C2807BFF7A03799412E3
:1001D40007857BFF7A0379581207B840107BFF7AB2
:1001E40003799C1207527F0112082E80E57BFF7A67
:1001F4000379AD1207857BFF7A0379581207B8405B
:10020400107BFF7A0379B51207527F0112082E8002
:10021400E57BFF7A0379BF1207857BFF7A0379C7F1
:100224001207527F0112082E7BFF7A0379DF12072F
:10023400527F0112082E1208547BFF7A0379ED12C3
:1002440007527BFF7A0479181207B850F57BFF7ABE
:0D0254000479231207857F0512082E80F91A
:0400260041005F0036
:030043000207129F
:0D071200C0E0C083C082C0D075D000C00719
:10071F0075AF00539AFEAF9B90005FE02460F582A7
:10072F00E43400F583EFF090005FE004F0E0D39441
:08073F00464002E4F075AF0131
:0B074700D007D0D0D082D083D0E032A9
:0F0854007F47900060E4F0A3DFFCE490005FF0CA
:010863002272
:1007B8009000B6EBF0A3EAF0A3E9F09000B6E0F9F8
:1007C800A3E0FAA3E09000BCC9F0A3EAF0A3E9F023
:1007D8007B017A00796012042BE94A4B6002D3222C
:0207E800C3222A
:0C08740041542B43495053454E440D00A5
:0C002A00C101C1004100010041000000C4
:030023000205765D
:0D057600C0E0C083C082C0D075D000C007B7
:10058300D28130986CC2ACC298AF993001229000EE
:1005930000E004F0E064067030EFB44C08D200C20F
:1005A30001E4F08024C201900000E4F0D2818019BC
:1005B300EFB4241520000AD201900000E004F0807B
:1005C300089000017401F0C200300023900000E0A5
:1005D3002419F582E43400F583EFF0900000E00481
:1005E300F0E0D394464008E4F0C200A37402F0D2D2
:0105F300AC5B
:0B05F400D007D0D0D082D083D0E032FE
:10004600C281C283D29CD2AC900001E0FF60F9C2AB
:1000560081C29CC2ACEF6401600302015C900000A7
:0B006600E0C394145005D28302015C3B
:100071007D011205FFEF6402600302015A9000D373
:100081007402F0FD1205FF9000D4EFF09000A97406
:1000910001F0A37400F0A37419F09000D3E0F9FD0E
:1000A100EFC39DFDE49400CD24FFFEED34FF9000ED
:1000B100ACF0A3CEF0E9FFA3E4F0A3EFF07B017A6B
:1000C10000790E1202617B017A0079197D03120613
:1000D100059000D3EFF07B017A0079197D041206B7
:1000E100059000D4EFF09000A97401F0A37400F022
:1000F100A37419F09000D3E0F9FDEFC39DFDE494E2
:1001010000CD24FFFEED34FF9000ACF0A3CEF0E96A
:10011100FFA3E4F0A3EFF07B017A00790212026100
:100121007BFF7A0879741207527F0112082E7F41F2
:100131001208807F311208807F2C1208807B017A9F
:1001410000790E1207527F2C1208807B017A007908
:0B015100021207521208548002D281F3
:08015C00E4900001F0020864C8
:0B0261009000A6EBF0A3EAF0A3E9F088
:10026C00A3E0F9A3E0FAA3E09000B0C9F0A3EAF090
:10027C00A3E9F09000A6E0F9A3E0FAA3E09000B3A4
:10028C00C9F0A3EAF0A3E9F09000A9E0FBA3E0FA1F
:10029C00A3E0F9120819AB07AA06D39000ADE09BB6
:1002AC00EA6480F89000ACE064809840149000AE52
:1002BC00E0FEA3E0FFEB9FFFEA9E9000ACF0A3EF03
:1002CC00F0C39000AEE0648094805004E4F0A3F09E
:1002DC009000AEE0FCA3E0FDD39BEA6480F8EC64F4
:1002EC00809840077B007A007900229000B1EC8D59
:1002FC00F01206919000AC74FFF5F01206A745F0D1
:10030C00602A9000B0E0FBA3E475F0011206A7A9E7
:10031C00F0FA120666FF9000B3E0FBA3E475F0015F
:10032C001206A7A9F0FAEF12067F80C89000B3E07E
:10033C00FBA3E475F0011206A7A9F0FAE412067FFC
:0B034C009000A6E0FBA3E0FAA3E0F99C
:010357002283
:0605FF007B017A0079196E
:0B0605009000CDEBF0A3EAF0A3E9F0B9
:10061000A3EBF0A3EAF0A3E9F0ED60399000CDE0A0
:10062000FBA3E0FAA3E0F9120666FF642A6010C398
:10063000EF648094A04008D3EF648094FA40037F75
:10064000FF22120666B42C011D9000CEE475F00165
:1006500012069180C49000D0A3A3E0FF9000CDA328
:05066000A3E0C39FFFB1
:010665002272
:0F0864007F47900019E4F0A3DFFCE4900000F060
:010873002262
:0B06BD009000C5EBF0A3EAF0A3E9F009
:1006C800E49000CCF09000CBE0FFA3E0C39F50344F
:1006D80020020E9000C5E0FBA3E0FAA3E0F91207A0
:1006E800527F0112082E9000C8E0FBA3E0FAA3E0B5
:1006F800F91207B850061208647F01229000CCE076
:0907080004F080C11208647F00B6
:0107110022C5
:10084200759840759A50759CFA758E1175AF01D2E4
:02085200AF22D3
:080003008F993099FDC299228A
:0B0880008F9BE59A30E1FB539AFD22AC
:100752009000B6EBF0A3EAF0A3E9F09000B6E0FB5C
:10076200A3E0FAA3E0F912066660179000B6A3E4CC
:1007720075F0011206A7A9F0FA120666FF120880A8
:0307820080D922F9
:100785009000B6EBF0A3EAF0A3E9F09000B6E0FB29
:10079500A3E0FAA3E0F912066660179000B6A3E499
:1007A50075F0011206A7A9F0FA120666FF120003FA
:0307B50080D922C6
:09003600020A00004200D500009E
:10000E00758901758CF8758ACD53B7FDD2B9D2AF0B
:05001E00D2A9D28C22E2
:03000B000207EAFF
:1007EA00C0E0C0D0758CF8758ACD050BE50B700298
:1007FA00050AE50BB4E813E50AB4030E750A007599
:0F080A000B000509E50970020508D0D0D0E032D7
:10082E00E4F508F509EFFDC3E5099D7480F8650848
:04083E009840F222CA
:030000000204EA0D
:0C04EA00787FE4F6D8FD75812002053112
:10066600BB010689828A83E0225002E722BBFE0292
:09067600E32289828A83E49322C5
:10067F00BB010689828A83F0225002F722BBFE015A
:02068F00F32254
:10069100C5F0F8A3E028F0C5F0F8E58215827002F4
:0606A1001583E038F02291
:1006A700A3F8E0C5F025F0F0E58215827002158306
:0606B700E0C838F0E82263
:10081900E4FFFE120666600C0FEF70010E09E97025
:05082900F20A80EF223D
:10042B009000B9EBF0A3EAF0A3E9F0A3E0FBA3E0A3
:10043B00FAA3E0F912066670030204D79000B9E044
:10044B00FBA3E0FAA3E0F912066670030204E39043
:10045B0000BCE0F9A3E0FAA3E0A3C9F0A3EAF0A380
:10046B00E9F09000B9A3E0FAA3E0F99000C2EBF039
:10047B00A3EAF0A3E9F09000BFE0FBA3E0FAA3E04E
:10048B00F9120666FF60269000C2E0FBA3E0FAA318
:10049B00E0F91206666F70159000C075F001120638
:1004AB00919000C3E475F00112069180C99000BFD2
:1004BB00E0FBA3E0FAA3E0F91206667002800D9050
:1004CB0000BAE475F0011206910204479000B9E0FE
:0F04DB00FBA3E0FAA3E0F9227B007A007900226C
:1004F600020164E493A3F8E493A34003F68001F2B7
:1005060008DFF48029E493A3F85407240CC8C33306
:10051600C4540F4420C8834004F456800146F6DFD5
:10052600E4800B0102040810204080900026E47E3F
:10053600019360BCA3FF543F30E509541FFEE493CA
:10054600A360010ECF54C025E060A840B8E493A391
:10055600FAE493A3F8E493A3C8C582C8CAC583CABC
:10056600F0A3C8C582C8CAC583CADFE9DEE780BE74
:01003F0000C0
:00000001FF
